{
  "contractName": "RPS",
  "abi": [
    {
      "inputs": [],
      "stateMutability": "payable",
      "type": "constructor"
    },
    {
      "inputs": [],
      "name": "bet",
      "outputs": [
        {
          "internalType": "uint256",
          "name": "",
          "type": "uint256"
        }
      ],
      "stateMutability": "view",
      "type": "function"
    },
    {
      "inputs": [],
      "name": "num1",
      "outputs": [
        {
          "internalType": "uint8",
          "name": "",
          "type": "uint8"
        }
      ],
      "stateMutability": "view",
      "type": "function"
    },
    {
      "inputs": [],
      "name": "num2",
      "outputs": [
        {
          "internalType": "uint8",
          "name": "",
          "type": "uint8"
        }
      ],
      "stateMutability": "view",
      "type": "function"
    },
    {
      "inputs": [],
      "name": "player1",
      "outputs": [
        {
          "internalType": "address",
          "name": "",
          "type": "address"
        }
      ],
      "stateMutability": "view",
      "type": "function"
    },
    {
      "inputs": [],
      "name": "player2",
      "outputs": [
        {
          "internalType": "address",
          "name": "",
          "type": "address"
        }
      ],
      "stateMutability": "view",
      "type": "function"
    },
    {
      "inputs": [],
      "name": "join",
      "outputs": [],
      "stateMutability": "payable",
      "type": "function"
    },
    {
      "inputs": [
        {
          "internalType": "uint8",
          "name": "_num1",
          "type": "uint8"
        }
      ],
      "name": "move_p1",
      "outputs": [],
      "stateMutability": "nonpayable",
      "type": "function"
    },
    {
      "inputs": [
        {
          "internalType": "uint8",
          "name": "_num2",
          "type": "uint8"
        }
      ],
      "name": "move_p2",
      "outputs": [],
      "stateMutability": "nonpayable",
      "type": "function"
    }
  ],
  "bytecode": "0x6080604052336000806101000a81548173ffffffffffffffffffffffffffffffffffffffff021916908373ffffffffffffffffffffffffffffffffffffffff160217905550346002819055506108d98061005a6000396000f3fe60806040526004361061007b5760003560e01c80637119f1401161004e5780637119f1401461012c578063b688a36314610155578063d30895e41461015f578063ed335a151461018a5761007b565b806311610c251461008057806315d4266c146100ab5780633b9eac4b146100d657806359a5f12d14610101575b600080fd5b34801561008c57600080fd5b506100956101b3565b6040516100a29190610723565b60405180910390f35b3480156100b757600080fd5b506100c06101b9565b6040516100cd919061073e565b60405180910390f35b3480156100e257600080fd5b506100eb6101cc565b6040516100f8919061073e565b60405180910390f35b34801561010d57600080fd5b506101166101df565b6040516101239190610708565b60405180910390f35b34801561013857600080fd5b50610153600480360381019061014e91906106ae565b610205565b005b61015d610574565b005b34801561016b57600080fd5b506101746105de565b6040516101819190610708565b60405180910390f35b34801561019657600080fd5b506101b160048036038101906101ac91906106ae565b610602565b005b60025481565b600360019054906101000a900460ff1681565b600360009054906101000a900460ff1681565b600160009054906101000a900473ffffffffffffffffffffffffffffffffffffffff1681565b60018160ff161015801561021d575060038160ff1611155b61022657600080fd5b6000600360009054906101000a900460ff1660ff16141561024657600080fd5b600160009054906101000a900473ffffffffffffffffffffffffffffffffffffffff1673ffffffffffffffffffffffffffffffffffffffff163373ffffffffffffffffffffffffffffffffffffffff16146102a057600080fd5b80600360016101000a81548160ff021916908360ff160217905550600360019054906101000a900460ff1660ff16600360009054906101000a900460ff1660ff1614156103da57600160009054906101000a900473ffffffffffffffffffffffffffffffffffffffff1673ffffffffffffffffffffffffffffffffffffffff166108fc6002805461033191906107af565b9081150290604051600060405180830381858888f1935050505015801561035c573d6000803e3d6000fd5b5060008054906101000a900473ffffffffffffffffffffffffffffffffffffffff1673ffffffffffffffffffffffffffffffffffffffff166108fc600280546103a591906107af565b9081150290604051600060405180830381858888f193505050501580156103d0573d6000803e3d6000fd5b5060006002819055505b6002600360009054906101000a900460ff1660ff1614801561040e57506001600360019054906101000a900460ff1660ff16145b80610448575060038060009054906101000a900460ff1660ff1614801561044757506002600360019054906101000a900460ff1660ff16145b5b8061048257506001600360009054906101000a900460ff1660ff16148015610481575060038060019054906101000a900460ff1660ff16145b5b156104fd5760008054906101000a900473ffffffffffffffffffffffffffffffffffffffff1673ffffffffffffffffffffffffffffffffffffffff166108fc6002549081150290604051600060405180830381858888f193505050501580156104ef573d6000803e3d6000fd5b506000600281905550610571565b600160009054906101000a900473ffffffffffffffffffffffffffffffffffffffff1673ffffffffffffffffffffffffffffffffffffffff166108fc6002549081150290604051600060405180830381858888f19350505050158015610567573d6000803e3d6000fd5b5060006002819055505b50565b600254341461058257600080fd5b34600260008282546105949190610759565b9250508190555033600160006101000a81548173ffffffffffffffffffffffffffffffffffffffff021916908373ffffffffffffffffffffffffffffffffffffffff160217905550565b60008054906101000a900473ffffffffffffffffffffffffffffffffffffffff1681565b60018160ff161015801561061a575060038160ff1611155b61062357600080fd5b60008054906101000a900473ffffffffffffffffffffffffffffffffffffffff1673ffffffffffffffffffffffffffffffffffffffff163373ffffffffffffffffffffffffffffffffffffffff161461067b57600080fd5b80600360006101000a81548160ff021916908360ff16021790555050565b6000813590506106a88161088c565b92915050565b6000602082840312156106c4576106c3610887565b5b60006106d284828501610699565b91505092915050565b6106e4816107e0565b82525050565b6106f381610812565b82525050565b6107028161081c565b82525050565b600060208201905061071d60008301846106db565b92915050565b600060208201905061073860008301846106ea565b92915050565b600060208201905061075360008301846106f9565b92915050565b600061076482610812565b915061076f83610812565b9250827fffffffffffffffffffffffffffffffffffffffffffffffffffffffffffffffff038211156107a4576107a3610829565b5b828201905092915050565b60006107ba82610812565b91506107c583610812565b9250826107d5576107d4610858565b5b828204905092915050565b60006107eb826107f2565b9050919050565b600073ffffffffffffffffffffffffffffffffffffffff82169050919050565b6000819050919050565b600060ff82169050919050565b7f4e487b7100000000000000000000000000000000000000000000000000000000600052601160045260246000fd5b7f4e487b7100000000000000000000000000000000000000000000000000000000600052601260045260246000fd5b600080fd5b6108958161081c565b81146108a057600080fd5b5056fea2646970667358221220642aaa3baa82de188b84d52ffd66483e445b10e4db974706ec18dd14bb56b76c64736f6c63430008050033",
  "immutableReferences": {},
  "source": "pragma solidity ^0.8.4;\r\n\r\ncontract RPS {\r\n    address public player1;\r\n    address public player2;\r\n    uint256 public bet; \r\n    uint8 public num1;\r\n    uint8 public num2;\r\n    //bool public gameOver; \r\n    \r\n    //\r\n    // stone paper scissors\r\n    // --1-- --2-- ---3---\r\n    \r\n    constructor() public payable {\r\n        player1 = msg.sender;\r\n        bet = msg.value;\r\n    }\r\n    \r\n    function join() public payable {\r\n        require(msg.value == bet);\r\n        bet += msg.value;\r\n        player2 = msg.sender;\r\n    }\r\n    \r\n    function move_p1(uint8 _num1) public {\r\n        require(_num1 >= 1 && _num1 <= 3);\r\n        require(msg.sender == player1);\r\n       // there should be player 2 to make your move\r\n        num1 = _num1;\r\n    }\r\n    function move_p2(uint8 _num2) public {\r\n        require(_num2 >= 1 && _num2 <= 3);\r\n        require(num1 != 0);\r\n        require(msg.sender == player2);\r\n        num2 = _num2;\r\n        if (num1 == num2){\r\n            payable(player2).transfer(bet / 2);\r\n            payable(player1).transfer(bet / 2);\r\n            bet = 0;\r\n        }\r\n        if ((num1 == 2 && num2 == 1) || (num1 == 3 && num2 == 2) || (num1 == 1 && num2 == 3)){\r\n            payable(player1).transfer(bet);\r\n            bet = 0;\r\n        }\r\n        else{\r\n           payable(player2).transfer(bet); \r\n           bet = 0;\r\n        }\r\n    }\r\n   // function payment(){\r\n        \r\n    //}\r\n}",
  "sourcePath": "F:/coinflip/CENG_3550/contracts/RPS.sol",
  "compiler": {
    "name": "solc",
    "version": "0.8.5+commit.a4f2e591.Emscripten.clang"
  },
  "schemaVersion": "3.3.4",
  "updatedAt": "2021-06-15T10:18:25.198Z",
  "devdoc": {
    "kind": "dev",
    "methods": {},
    "version": 1
  },
  "userdoc": {
    "kind": "user",
    "methods": {},
    "version": 1
  }
}