{
  "contractName": "Test",
  "abi": [
    {
      "anonymous": false,
      "inputs": [
        {
          "indexed": false,
          "internalType": "address",
          "name": "owner",
          "type": "address"
        },
        {
          "indexed": false,
          "internalType": "uint256",
          "name": "funding",
          "type": "uint256"
        }
      ],
      "name": "funded",
      "type": "event"
    },
    {
      "inputs": [],
      "name": "balance",
      "outputs": [
        {
          "internalType": "uint256",
          "name": "",
          "type": "uint256"
        }
      ],
      "stateMutability": "view",
      "type": "function"
    },
    {
      "inputs": [],
      "name": "num",
      "outputs": [
        {
          "internalType": "uint256",
          "name": "",
          "type": "uint256"
        }
      ],
      "stateMutability": "view",
      "type": "function"
    },
    {
      "inputs": [],
      "name": "prize",
      "outputs": [
        {
          "internalType": "bool",
          "name": "",
          "type": "bool"
        }
      ],
      "stateMutability": "view",
      "type": "function"
    },
    {
      "inputs": [],
      "name": "receiver",
      "outputs": [
        {
          "internalType": "address",
          "name": "",
          "type": "address"
        }
      ],
      "stateMutability": "view",
      "type": "function"
    },
    {
      "inputs": [
        {
          "internalType": "uint8",
          "name": "_num",
          "type": "uint8"
        }
      ],
      "name": "set",
      "outputs": [
        {
          "internalType": "address",
          "name": "_receiver",
          "type": "address"
        }
      ],
      "stateMutability": "payable",
      "type": "function"
    },
    {
      "inputs": [],
      "name": "fund",
      "outputs": [
        {
          "internalType": "uint256",
          "name": "",
          "type": "uint256"
        }
      ],
      "stateMutability": "payable",
      "type": "function"
    },
    {
      "inputs": [],
      "name": "get",
      "outputs": [
        {
          "internalType": "uint256",
          "name": "",
          "type": "uint256"
        }
      ],
      "stateMutability": "view",
      "type": "function"
    }
  ],
  "bytecode": "0x60806040526002600143610013919061003a565b4060001c6100219190610078565b6000554760025534801561003457600080fd5b50610107565b60006100458261006e565b91506100508361006e565b925082821015610063576100626100a9565b5b828203905092915050565b6000819050919050565b60006100838261006e565b915061008e8361006e565b92508261009e5761009d6100d8565b5b828206905092915050565b7f4e487b7100000000000000000000000000000000000000000000000000000000600052601160045260246000fd5b7f4e487b7100000000000000000000000000000000000000000000000000000000600052601260045260246000fd5b6106d8806101166000396000f3fe6080604052600436106100705760003560e01c8063b60d42881161004e578063b60d4288146100fb578063b69ef8a814610119578063e3ac5d2614610144578063f7260d3e1461016f57610070565b806324b8ba5f146100755780634e70b1dc146100a55780636d4ce63c146100d0575b600080fd5b61008f600480360381019061008a91906103ea565b61019a565b60405161009c9190610444565b60405180910390f35b3480156100b157600080fd5b506100ba610308565b6040516100c791906104a3565b60405180910390f35b3480156100dc57600080fd5b506100e561030e565b6040516100f291906104a3565b60405180910390f35b610103610317565b60405161011091906104a3565b60405180910390f35b34801561012557600080fd5b5061012e610396565b60405161013b91906104a3565b60405180910390f35b34801561015057600080fd5b5061015961039c565b6040516101669190610488565b60405180910390f35b34801561017b57600080fd5b506101846103af565b6040516101919190610444565b60405180910390f35b600033600360006101000a81548173ffffffffffffffffffffffffffffffffffffffff021916908373ffffffffffffffffffffffffffffffffffffffff1602179055508160ff1660005414156102c05734600260008282546101fc919061056e565b9250508190555060018060006101000a81548160ff021916908315150217905550600360009054906101000a900473ffffffffffffffffffffffffffffffffffffffff1673ffffffffffffffffffffffffffffffffffffffff166108fc6002346102669190610514565b9081150290604051600060405180830381858888f19350505050158015610291573d6000803e3d6000fd5b50600060026001436102a3919061056e565b4060001c6102b191906105f7565b90508060008190555050610303565b34600260008282546102d291906104be565b92505081905550600060026001436102ea919061056e565b4060001c6102f891906105f7565b905080600081905550505b919050565b60005481565b60008054905090565b600067016345785d8a00008034101561032f57600080fd5b600034141561033d57600080fd5b7fed7d0ddcc17abdb3935a0a23cd93e91b449dfeac7fd0def9f481ed5b37e18c4d333460405161036e92919061045f565b60405180910390a1346002600082825461038891906104be565b925050819055503491505090565b60025481565b600160009054906101000a900460ff1681565b600360009054906101000a900473ffffffffffffffffffffffffffffffffffffffff1681565b6000813590506103e48161068b565b92915050565b600060208284031215610400576103ff610686565b5b600061040e848285016103d5565b91505092915050565b610420816105a2565b82525050565b61042f816105b4565b82525050565b61043e816105e0565b82525050565b60006020820190506104596000830184610417565b92915050565b60006040820190506104746000830185610417565b6104816020830184610435565b9392505050565b600060208201905061049d6000830184610426565b92915050565b60006020820190506104b86000830184610435565b92915050565b60006104c9826105e0565b91506104d4836105e0565b9250827fffffffffffffffffffffffffffffffffffffffffffffffffffffffffffffffff0382111561050957610508610628565b5b828201905092915050565b600061051f826105e0565b915061052a836105e0565b9250817fffffffffffffffffffffffffffffffffffffffffffffffffffffffffffffffff048311821515161561056357610562610628565b5b828202905092915050565b6000610579826105e0565b9150610584836105e0565b92508282101561059757610596610628565b5b828203905092915050565b60006105ad826105c0565b9050919050565b60008115159050919050565b600073ffffffffffffffffffffffffffffffffffffffff82169050919050565b6000819050919050565b600060ff82169050919050565b6000610602826105e0565b915061060d836105e0565b92508261061d5761061c610657565b5b828206905092915050565b7f4e487b7100000000000000000000000000000000000000000000000000000000600052601160045260246000fd5b7f4e487b7100000000000000000000000000000000000000000000000000000000600052601260045260246000fd5b600080fd5b610694816105ea565b811461069f57600080fd5b5056fea2646970667358221220fb5ba891fd36a99fc7da57d7a3f3695e1821b1300436fe5fff86597679abdc1464736f6c63430008050033",
  "immutableReferences": {},
  "source": "// SPDX-License-Identifier: MIT\r\npragma solidity >=0.8.5;\r\n\r\ncontract Test {\r\n    //uint256 public num = uint256(blockhash(block.number -1)) % 10;\r\n    uint256 public num = uint256(blockhash(block.number - 1)) % 2;\r\n    bool public prize;\r\n    uint256 public balance = address(this).balance; // balance of the contract can't be negative\r\n    event funded(address owner, uint256 funding);\r\n    address public receiver; // after solidity version 0.8.x+ no need to be payable\r\n\r\n    modifier costs(uint256 cost) {\r\n        require(msg.value >= cost);\r\n        _;\r\n    }\r\n\r\n    function set(uint8 _num) public payable returns (address _receiver) {\r\n        receiver = msg.sender;\r\n        if (num == _num) {\r\n            balance -= msg.value;\r\n            prize = true;\r\n            //   msg.sender.transfer(address(this).balance); // for solidity 0.8.x-\r\n\r\n            payable(receiver).transfer(msg.value * 2);\r\n            uint256 _num = uint256(blockhash(block.number - 1)) % 2;\r\n            num = _num;\r\n        } else {\r\n            balance += msg.value;\r\n            uint256 _num = uint256(blockhash(block.number - 1)) % 2;\r\n            num = _num;\r\n        }\r\n    }\r\n\r\n    function fund() public payable costs(0.1 ether) returns (uint256) {\r\n        require(msg.value != 0); // funding the contract\r\n\r\n        emit funded(msg.sender, msg.value);\r\n        balance += msg.value;\r\n        return msg.value;\r\n    }\r\n\r\n    function get() public view returns (uint256) {\r\n        return num;\r\n    }\r\n}\r\n",
  "sourcePath": "F:/coinflip/CENG_3550/contracts/Gtest.sol",
  "compiler": {
    "name": "solc",
    "version": "0.8.5+commit.a4f2e591.Emscripten.clang"
  },
  "schemaVersion": "3.3.4",
  "updatedAt": "2021-06-15T16:24:10.879Z",
  "devdoc": {
    "kind": "dev",
    "methods": {},
    "version": 1
  },
  "userdoc": {
    "kind": "user",
    "methods": {},
    "version": 1
  }
}