{
  "contractName": "Test",
  "abi": [
    {
      "anonymous": false,
      "inputs": [
        {
          "indexed": false,
          "internalType": "address",
          "name": "owner",
          "type": "address"
        },
        {
          "indexed": false,
          "internalType": "uint256",
          "name": "funding",
          "type": "uint256"
        }
      ],
      "name": "funded",
      "type": "event"
    },
    {
      "inputs": [],
      "name": "balance",
      "outputs": [
        {
          "internalType": "uint256",
          "name": "",
          "type": "uint256"
        }
      ],
      "stateMutability": "view",
      "type": "function"
    },
    {
      "inputs": [],
      "name": "num",
      "outputs": [
        {
          "internalType": "uint256",
          "name": "",
          "type": "uint256"
        }
      ],
      "stateMutability": "view",
      "type": "function"
    },
    {
      "inputs": [],
      "name": "prize",
      "outputs": [
        {
          "internalType": "bool",
          "name": "",
          "type": "bool"
        }
      ],
      "stateMutability": "view",
      "type": "function"
    },
    {
      "inputs": [],
      "name": "receiver",
      "outputs": [
        {
          "internalType": "address",
          "name": "",
          "type": "address"
        }
      ],
      "stateMutability": "view",
      "type": "function"
    },
    {
      "inputs": [
        {
          "internalType": "uint8",
          "name": "_num",
          "type": "uint8"
        }
      ],
      "name": "set",
      "outputs": [
        {
          "internalType": "address",
          "name": "_receiver",
          "type": "address"
        }
      ],
      "stateMutability": "payable",
      "type": "function"
    },
    {
      "inputs": [],
      "name": "fund",
      "outputs": [
        {
          "internalType": "uint256",
          "name": "",
          "type": "uint256"
        }
      ],
      "stateMutability": "payable",
      "type": "function"
    }
  ],
  "bytecode": "0x60806040526002600143610013919061003a565b4060001c6100219190610078565b6000554760025534801561003457600080fd5b50610107565b60006100458261006e565b91506100508361006e565b925082821015610063576100626100a9565b5b828203905092915050565b6000819050919050565b60006100838261006e565b915061008e8361006e565b92508261009e5761009d6100d8565b5b828206905092915050565b7f4e487b7100000000000000000000000000000000000000000000000000000000600052601160045260246000fd5b7f4e487b7100000000000000000000000000000000000000000000000000000000600052601260045260246000fd5b610689806101166000396000f3fe6080604052600436106100555760003560e01c806324b8ba5f1461005a5780634e70b1dc1461008a578063b60d4288146100b5578063b69ef8a8146100d3578063e3ac5d26146100fe578063f7260d3e14610129575b600080fd5b610074600480360381019061006f919061039b565b610154565b60405161008191906103f5565b60405180910390f35b34801561009657600080fd5b5061009f6102c2565b6040516100ac9190610454565b60405180910390f35b6100bd6102c8565b6040516100ca9190610454565b60405180910390f35b3480156100df57600080fd5b506100e8610347565b6040516100f59190610454565b60405180910390f35b34801561010a57600080fd5b5061011361034d565b6040516101209190610439565b60405180910390f35b34801561013557600080fd5b5061013e610360565b60405161014b91906103f5565b60405180910390f35b600033600360006101000a81548173ffffffffffffffffffffffffffffffffffffffff021916908373ffffffffffffffffffffffffffffffffffffffff1602179055508160ff16600054141561027a5734600260008282546101b6919061051f565b9250508190555060018060006101000a81548160ff021916908315150217905550600360009054906101000a900473ffffffffffffffffffffffffffffffffffffffff1673ffffffffffffffffffffffffffffffffffffffff166108fc60023461022091906104c5565b9081150290604051600060405180830381858888f1935050505015801561024b573d6000803e3d6000fd5b506000600260014361025d919061051f565b4060001c61026b91906105a8565b905080600081905550506102bd565b346002600082825461028c919061046f565b92505081905550600060026001436102a4919061051f565b4060001c6102b291906105a8565b905080600081905550505b919050565b60005481565b600067016345785d8a0000803410156102e057600080fd5b60003414156102ee57600080fd5b7fed7d0ddcc17abdb3935a0a23cd93e91b449dfeac7fd0def9f481ed5b37e18c4d333460405161031f929190610410565b60405180910390a13460026000828254610339919061046f565b925050819055503491505090565b60025481565b600160009054906101000a900460ff1681565b600360009054906101000a900473ffffffffffffffffffffffffffffffffffffffff1681565b6000813590506103958161063c565b92915050565b6000602082840312156103b1576103b0610637565b5b60006103bf84828501610386565b91505092915050565b6103d181610553565b82525050565b6103e081610565565b82525050565b6103ef81610591565b82525050565b600060208201905061040a60008301846103c8565b92915050565b600060408201905061042560008301856103c8565b61043260208301846103e6565b9392505050565b600060208201905061044e60008301846103d7565b92915050565b600060208201905061046960008301846103e6565b92915050565b600061047a82610591565b915061048583610591565b9250827fffffffffffffffffffffffffffffffffffffffffffffffffffffffffffffffff038211156104ba576104b96105d9565b5b828201905092915050565b60006104d082610591565b91506104db83610591565b9250817fffffffffffffffffffffffffffffffffffffffffffffffffffffffffffffffff0483118215151615610514576105136105d9565b5b828202905092915050565b600061052a82610591565b915061053583610591565b925082821015610548576105476105d9565b5b828203905092915050565b600061055e82610571565b9050919050565b60008115159050919050565b600073ffffffffffffffffffffffffffffffffffffffff82169050919050565b6000819050919050565b600060ff82169050919050565b60006105b382610591565b91506105be83610591565b9250826105ce576105cd610608565b5b828206905092915050565b7f4e487b7100000000000000000000000000000000000000000000000000000000600052601160045260246000fd5b7f4e487b7100000000000000000000000000000000000000000000000000000000600052601260045260246000fd5b600080fd5b6106458161059b565b811461065057600080fd5b5056fea26469706673582212200461c26dc76381c4edc4978052c9765ee6d7e9f2d6be5d9435ab334aaa19069d64736f6c63430008050033",
  "immutableReferences": {},
  "source": "pragma solidity ^0.8.4;\r\n\r\n\r\n// to do list\r\n\r\n\r\n//\r\ncontract Test {\r\n    //uint256 public num = uint256(blockhash(block.number -1)) % 10;\r\n    uint256 public num = uint256(blockhash(block.number -1)) % 2; \r\n    bool public prize;\r\n    uint public balance = address(this).balance; // balance of the contract can't be negative\r\n    event funded(address owner, uint funding);   \r\n    address  public receiver ; // after solidity version 0.8.x+ no need to be payable     \r\n    \r\n    \r\n    \r\n    modifier costs(uint cost){\r\n        \r\n        require(msg.value >= cost);\r\n        _;\r\n    }\r\n\r\n    function set(uint8 _num)  public payable returns (address _receiver) {\r\n         receiver = msg.sender;\r\n            if(num == _num){\r\n\r\n       \r\n            balance -= msg.value; \r\n       prize = true;\r\n        //   msg.sender.transfer(address(this).balance); // for solidity 0.8.x- \r\n        \r\n       payable(receiver).transfer(msg.value*2);\r\n       uint256 _num = uint256(blockhash(block.number -1)) % 2;\r\n       num = _num;\r\n        }\r\n            else{\r\n                balance += msg.value;\r\n                uint256 _num = uint256(blockhash(block.number -1)) % 2;\r\n                num = _num;\r\n    }\r\n}\r\n\r\n\r\n\r\n\r\n    function fund() public payable costs(0.1 ether) returns(uint){\r\n        require(msg.value != 0); // funding the contract\r\n      \r\n        emit funded(msg.sender, msg.value);\r\n        balance += msg.value;\r\n        return msg.value;\r\n    }\r\n}",
  "sourcePath": "F:/coinflip/CENG_3550/contracts/Gtest.sol",
  "compiler": {
    "name": "solc",
    "version": "0.8.5+commit.a4f2e591.Emscripten.clang"
  },
  "schemaVersion": "3.3.4",
  "updatedAt": "2021-06-15T10:18:25.191Z",
  "devdoc": {
    "kind": "dev",
    "methods": {},
    "version": 1
  },
  "userdoc": {
    "kind": "user",
    "methods": {},
    "version": 1
  }
}